:10000000CFC60000EAC60000E8C600000C94163413
:10001000E4C60000E2C60000E0C60000DEC6000044
:10002000DCC60000DAC600000C94E5130C94F31C47
:100030000C942E2AD2C60000D0C60000CEC6000006
:10004000CCC60000CAC60000C8C60000C6C6000074
:10005000C4C600000C94CC14C0C60000BEC600008C
:10006000BCC60000BAC60000B8C60000B6C6000094
:10007000B4C60000B2C60000B0C60000AEC60000A4
:10008000ACC60000AAC60000A8C60000A6C60000B4
:10009000A4C60000A2C60000A0C600009EC60000C4
:1000A0009CC600009AC6000098C60000050109021F
:1000B000A10185020901A1000509190129081500FE
:1000C0002501950875018102050109300931158165
:1000D000257F95027508810609381581257F9501D0
:1000E00075088106050C0A38021581257F95017572
:1000F000088106C0C005010980A101850319012AF4
:10010000B700150126B700950175108100C0050CD8
:100110000901A101850419012AA002150126A002E6
:10012000950175108100C005010906A1018506052C
:100130000719E029E71500250195087501810205D9
:1001400007190029EF1500250195F07501810205B9
:10015000081901290595057501910295017503910D
:1001600001C00660FF0961A1010962150026FF00B8
:100170009520750881020963150026FF00952075FA
:10018000089102C005010906A101050719E029E748
:1001900015002501950875018102950175088101F9
:1001A0000507190029FF150026FF0095067508812F
:1001B000000508190129051500250195057501910E
:1001C00002950175039101C000DA0281FFD9F1DBCC
:1001D00020A4A62EAF00A0C0D30000A1C8D3000069
:1001E000AED580A81F408D142000FD377A585A00E4
:1001F0000004E6D6B4460200210116000000742F68
:10020000E5A3E008E2024C5D003D8889C65436C390
:10021000174FE4E62B87DC61F128B5AEA0A33C3C88
:10022000F45F7424B52C3D20C7689B3A8E08CE1627
:10023000E28FDD74FFA04F08D43D201DD0558F11F3
:10024000BBB13287318A341491884A492E35E03463
:100250002D0C400E9A3CEAF71ADE8FB7A230CF5928
:1002600083F223EF20330CC056779F9CED4D7DAF7A
:100270003FD6C289956075A12F2E891DDC43DF67AB
:100280005F81D38DC5C3D81411649D6290F38B2C0C
:10029000365D0B6F74C04E46B3DED00F56EE8AE269
:1002A000DAB7FB9EFD0D52C588DC45FF874E8E6197
:1002B000CF38B24884655A4D7476CD19495E5DD504
:1002C000F1A4BAB0B017AFD23C9471A8793419ED4B
:1002D000C7367C4DB86CFF0F9FC4D682F61E028CC9
:1002E0006E040164DC13F769236B5C1B173425A3D0
:1002F000AACCB1CE1B6458512974EBCF67BC05AFB3
:100300006801AB1F9DBAF8424C73DA53FA234F3E93
:10031000D1FCDE9F32459070FE604F3037942A1634
:10032000C7A89A52BA8BD32488E60234B33230E29B
:100330005B02F96739FB000ED8394232BA69E6C769
:10034000B6B4B1109460026B794FB8BDC9E9DA5800
:100350007632299FB653855DFDDEF3B603CD39B7FE
:10036000DC4DA942249A5411D726B6B55B33ADEBC8
:10037000ADF5D7D48445A32FAECFE7FD52418C75A0
:1003800035D1ED6688C5C3B66ED8A73473063DC8AF
:10039000E06EBAE463C7C59C31D05BE096CC2FBE5B
:1003A0001F53F74A885C950AFE0A7AB34C324823F9
:1003B0000B57D3C22EFF6C14DF96681887B11377E2
:1003C0001788D21F2EF65EF6EA81BD9E780C99AD95
:1003D000FBAE8ACB3F227CC2541095BA3303810412
:1003E00047A8821B9EBE3EE2CEBBBFD790D6CCA113
:1003F000CDDE15224B703556F3C0AEF2CA6FB30690
:10040000516C763356767F419828CEB0EB9E5CBB1C
:1004100068AC9CF7C21DFD6BEB2C49B7166F54BB43
:100420002852D4BC222279F621D7640A4DFF6E6B84
:10043000661140C16B4059A09581608C237F0413E5
:100440007E9770EC23369BC1F35CD589B57D789699
:10045000442D57F1A400522FF7134D662E81000151
:10046000E804E311000063CCEC15B1C467FB0200A3
:1004700000000004595A07087F0807003E5B4F5BE5
:100480003E003E6B4F6B3E001C3E7C3E1C00183C09
:100490007E3C18001C577D571C001C5E7F5E1C00B4
:1004A00000183C180000FFE7C3E7FF0000182418FD
:1004B0000000FFE7DBE7FF0030483A060E00262980
:1004C00079292600407F05050700407F05253F006C
:1004D0005A3CE73C5A007F3E1C1C0800081C1C3E8E
:1004E0007F0014227F2214005F5F005F5F00060917
:1004F0007F017F00006689956A006060606060002F
:1005000094A2FFA2940008047E04080010207E201C
:10051000100008082A1C0800081C2A0808001E10E1
:10052000101010000C1E0C1E0C0030383E3830002D
:10053000060E3E0E060000000000000000005F00F6
:100540000000000700070000147F147F1400242A15
:100550007F2A120023130864620036495620500097
:10056000000807030000001C224100000041221C7B
:1005700000002A1C7F1C2A0008083E080800008092
:1005800070300000080808080800000060600000E3
:100590002010080402003E5149453E0000427F40C1
:1005A00000007249494946002141494D3300181461
:1005B000127F10002745454539003C4A4949310022
:1005C0004121110907003649494936004649492960
:1005D0001E0000001400000000403400000000086D
:1005E00014224100141414141400004122140800B1
:1005F0000201590906003E415D594E007C1211125C
:100600007C007F49494936003E41414122007F41FB
:1006100041413E007F49494941007F0909090100E4
:100620003E41415173007F0808087F0000417F412F
:1006300000002040413F01007F08142241007F401C
:10064000404040007F021C027F007F0408107F00B2
:100650003E4141413E007F09090906003E415121CA
:100660005E007F09192946002649494932000301E5
:100670007F0103003F4040403F001F2040201F00FB
:100680003F4038403F0063140814630003047804BB
:1006900003006159494D4300007F4141410002047C
:1006A00008102000004141417F00040201020400C3
:1006B00040404040400000030708000020545478A8
:1006C00040007F28444438003844444428003844DB
:1006D00044287F0038545454180000087E09020052
:1006E00018A4A49C78007F080404780000447D408E
:1006F00000002040403D00007F10284400000041E1
:100700007F4000007C04780478007C0804047800B2
:10071000384444443800FC182424180018242418B1
:10072000FC007C08040408004854545424000404C9
:100730003F4424003C4040207C001C2040201C0002
:100740003C4030403C004428102844004C9090909D
:100750007C004464544C4400000836410000000012
:100760007700000000413608000002010204020088
:100770003C2623263C00000000000000404040F0E2
:10078000F8F8FF38FFF8F83FF8F8FF38FFF8F8F00E
:1007900040404000000000000080C0C0C080000059
:1007A000C0C08000000080C0C000C0C0000080C089
:1007B000C00000000000C0C0C0C0C000C0C0000039
:1007C0000000000000000000000000000000000029
:1007D0000000000000000000000000000000000019
:1007E0000000000000000000000000000000000009
:1007F0000000000000C0F0F8FC3E1E0601000000F2
:100800007F4141417F007F4141417F000080C0E046
:100810007E5B4F5BFEC00000C000DCD7DEDEDED7B3
:10082000DC00C0000000000000000000000000002C
:10083000000000000000000000000000494949FFDE
:10084000FFFFFFE0DFBFBF00BFBFDFE0FFFFFFFF35
:1008500049494900000000001F3F6060E0BF1F00E1
:100860007F7F071E381E077F7F007F7F0E1F3B7133
:100870006000000000007F7F0C0C0C007E7E007F7B
:100880007E0303007F7E03037E7E03037F7E000FD3
:100890003E703C063C703E0F00327B49493F7E0073
:1008A0007F7E0303001E3F69696F26000000000081
:1008B0000000000000030F1F3F3C78706000000044
:1008C0007F4141417F007F4141417F00307B7F7804
:1008D00030202030787F3B0003000F7F0F0F0F7F09
:1008E0000F000300000000000000000000000000F6
:1008F00000000000000000000000000001010107EE
:100900000F0F7F0F7F0F0F7E0F0F7F0F7F0F0F07D0
:1009100001010100000000000000000000010100D2
:1009200000000000000000000000000000000000C7
:1009300000000000000000000000000000000000B7
:1009400000000000000000000000000000000000A7
:100950000000000000000000000000000000000097
:100960000000000000000000000000000000000087
:100970000000000000000000000000000000000077
:100980000000000000000000000000000000000067
:100990000000000000000000000000000000000057
:1009A0000000000000000000000000000000000047
:1009B00000000000000000AF00AE4350534C4B005D
:1009C0000A0A00556E646566004C6F7765720052C6
:1009D0006169736500426173650A004C4159455273
:1009E000000A0A004D6F640A00436C6D6B0051777A
:1009F0007274000A0A0080818283848586878889D0
:100A00008A8B8C8D8E8F9091929394A0A1A2A3A497
:100A1000A5A6A7A8A9AAABACADAEAFB0B1B2B3B40E
:100A2000C0C1C2C3C4C5C6C7C8C9CACBCCCDCECF4E
:100A3000D0D1D2D3D40035001E001F0020002100E9
:100A40002200290014001A000800150017002B00CE
:100A500004001600070009000A00E1001D001B0049
:100A6000060019000500E300E200E0002252280021
:100A7000A8003500270026002500240023002A00B6
:100A8000130012000C0018001C00340033000F008B
:100A90000E000D000B00E500380037003600100096
:100AA0001100E700E600E40023522C0000003500AE
:100AB0001E001F00200021002200290014001A003F
:100AC000090013000A002B0004001500160017008F
:100AD0000700E1001D001B00060019000500E300EF
:100AE000E200E00001002800A800350027002600F1
:100AF0002500240023002A0033001C0018000F00EA
:100B00000D00340012000C00080011000B00E5007D
:100B100038003700360010000E00E700E600E40061
:100B200001002C00000001003A003B003C003D00A9
:100B30003E0035001E001F002000210022000100A1
:100B40001E021F0220022102220201002E002D009F
:100B50002E022F02300201000100010001000100FD
:100B60000100440043004200410040003F004500B6
:100B70002700260025002400230031022702260238
:100B80002502240223020100310033023300300029
:100B90002F0001000100010001000100010001001F
:100BA00001000100010001000100010049004600B0
:100BB0006500000000000100E200E000E10000002C
:100BC000390001007A007B007C007D0000000100FC
:100BD000010001000100010001000100010001000D
:100BE0000100010001002A00010001005200010083
:100BF0004B002A004C004F00510050004E000100F5
:100C000000000100000001000000010001000100DF
:100C100001000100010001000100010001000100CC
:100C200001000100010001000100010001000100BC
:100C300001000100010009025B00030100A0FA09A4
:100C400004000001030101000921110100012244F7
:100C500000070581030800010904010002030000E8
:100C60000009211101000122220007058203200052
:100C7000010705030320000109040200010300002D
:100C80000009211101000122B6000705840320009C
:100C900001120100020000000832FC87020100017D
:100CA0000203011C037600690061006C003A0066D3
:100CB000003600340063003200620033006300003D
:100CC000000C0353006F0066006C00650000001A02
:100CD000034A006F00730065006600410064006114
:100CE000006D00630069006B00000004030904004C
:100CF00000000000000000000000000000000000F4
:100D000000000000000000000000000000000000E3
:100D10000000007E0F00D4FFFFFFC7000000780036
:100D2000000000000000002A2B2800000000000046
:100D30000000000000000000000029000000002C5E
:100D40001E3420212224342627252E362D373827FD
:100D50001E1F202122232425263333362E37381F09
:100D60000405060708090A0B0C0D0E0F10111213CB
:100D70001415161718191A1B1C1D2F3130232D3569
:100D80000405060708090A0B0C0D0E0F10111213AB
:100D90001415161718191A1B1C1D2F3130354C004D
:100DA00011241FBECFEFDAE0DEBFCDBF11E0A0E01F
:100DB000B1E0E6EEFCE602C005900D92A03DB10761
:100DC000D9F726E0A0EDB1E001C01D92A330B20733
:100DD000E1F70E945F2A0C94243612C9482F209113
:100DE00002069091C90557E0291302C080E00895DA
:100DF00030E0529FF001539FF00D1124E653FA4F5B
:100E00008181681306C08081481303C085818111E8
:100E1000EECF2F5F3F4F2770E7CFE091C705F091EE
:100E2000C805309739F00284F385E02D309711F032
:100E300060E209950895E8EDF0E080818E7F80837F
:100E40001092E2001092DA001092E100A0EEB0E001
:100E50008C9181608C9380818F77808319BCA7ED02
:100E6000B0E08C918E7F8C9380818F7E80831092F6
:100E7000B20508952091E4003091E50095E6A901BE
:100E80002091EC00822F817020FF06C08091E80045
:100E900080FF06C080E008952091E80022FD1AC07E
:100EA0008091BD05882389F0853089F08091EB0021
:100EB00085FD0FC02091E4003091E50042175307F3
:100EC000F9F29150E1F684E0089582E0089583E01C
:100ED000089581E008958091BF0587FF13C0809138
:100EE000E80082FF06C08091E8008B778093E800DD
:100EF00004C08091BD058111F2CF08958091BD0598
:100F00008823D9F38091E80080FFF8CF8091E80032
:100F10008E77ECCF982F9093E900242F762F50E016
:100F2000891731F07091EC002091ED005091F000A4
:100F300021FD07C09F5F973071F78093E90081E042
:100F400008953091EB003E7F3093EB003091ED003F
:100F50003D7F3093ED003091EB0031603093EB003A
:100F60007093EC002093ED005093F0002091EE0080
:100F700027FDE0CF80E00895B0E0A0E0E2ECF7E0EC
:100F80000C944435C8EDD0E088818F7E8883E7EDEE
:100F9000F0E080818160808384E082BF81E0809383
:100FA000B20588818E7F888302EE10E0F8011082FE
:100FB0001092DA0081EEC82ED12CF60110828881C1
:100FC0008F77888388818068888388818F7D8883F4
:100FD00019BC1092BD051092BE051092BC0510926E
:100FE000BB0590EEE92EF12CF70180818B7F808389
:100FF00088818160888342E060E080E08BDFF601D9
:1010000080818E7F8083F8018081816080838081F0
:1010100088608083F70180818E7F808388818061F2
:101020008883CDB7DEB7E8E00C946035FC01809191
:10103000C5059091C60586179707A0F06115710543
:1010400029F49091E8009E779093E80090E0611574
:10105000710551F4911108C08091E80082FF34C0FD
:1010600080E00895BC01F2CF8091BD058823C1F1D5
:101070008530C1F18091E80083FD30C08091E800A7
:1010800082FDEACF8091E80080FFE1CF8091F300FC
:101090002091F200382F6115710519F028303105C3
:1010A00058F091E02830310509F090E02091E800F7
:1010B0002E772093E800CBCF81918093F10061508F
:1010C00071092F5F3F4FE7CF8091BD05882341F025
:1010D000853041F08091E80083FFBECF81E0089524
:1010E00082E0089583E0089587E797E790930108E9
:1010F0008093000888E19AE00FB6F894A895809351
:1011000060000FBE90936000FFCF2FB7F8946091FE
:10111000AE057091AF058091B0059091B1052FBFDC
:10112000089580914F010895909150019130D1F42C
:101130009091AB0597FF16C0E82FE695E695E695EA
:10114000EE31E0F4F0E0E652FE4F282F277081E008
:1011500090E001C0880F2A95EAF780959281892353
:1011600082830895E4EDF1E09191891303C0DF01DA
:1011700011971C9291E0EA3DF907B1F7089590911B
:1011800050019130C1F49091AB0597FF14C0E82F46
:10119000E695E695E695EE31F8F4F0E0E652FE4F7E
:1011A000877021E030E001C0220F8A95EAF7828142
:1011B000822B82830895A4EDB1E0EFEF90E02D91B2
:1011C000821751F0EF3F19F4211101C0E92F9F5F01
:1011D0009630A9F7EF3F09F408950E2E000CFF0B8F
:1011E000EE52FE4FE6CFA3E0B0E0E9EFF8E00C945A
:1011F0004A352091A9053091AA0528173907B1F081
:101200009093AA058093A905E091C705F091C805C0
:10121000309761F00084F185E02D309739F024E0BB
:1012200029839B838A83CE01019609952396E2E068
:101230000C946635A3E0B0E0E0E2F9E00C944A35A6
:101240002091A7053091A80528173907B1F0909390
:10125000A8058093A705E091C705F091C8053097D0
:1012600061F00084F185E02D309739F023E0298387
:101270009B838A83CE01019609952396E2E00C9424
:1012800066358091A505882369F0E091C705F09146
:10129000C805309739F00190F081E02D309711F0BA
:1012A0000995089580E008954115510511F0FA015E
:1012B000099508958091930580FD16C081FD16C0A3
:1012C00082FD16C0809192058823A1F0883280F4B7
:1012D00028E0829FC001112468E270E00E947D3501
:1012E000862F672B39F0089582E0089584E00895F1
:1012F00088E0089581E008958091930580FD14C0F1
:1013000081FD14C082FD16C080919105882381F073
:101310008E3180F420E5829FC00111246EE170E0DF
:101320000E947D35862F089584E1089588E208950E
:1013300088E0089580E50895282F35EB2303C00148
:10134000112497FF04C080589109892F089580586F
:101350009F4FFBCFFC01680F791F8FEF91E3219125
:10136000822728E030E087FF09C0880F89272150B5
:101370003109C9F7E617F70791F70895880FF7CFF6
:1013800090E06623A1F0835B9E4FFC0120812F3FFC
:1013900089F0E22FE295EF70F0E080A190E02F70ED
:1013A00002C0959587952A95E2F781700895845B30
:1013B0009E4FEBCF80E0089590E06623E9F0835BD9
:1013C0009E4FFC0180818F3FB1F0E82FE295EF70D6
:1013D000F0E041A18F7021E030E0B90102C0660F5A
:1013E000771F8A95E2F7CB01962F9095942391A3CE
:1013F00092A1892B82A30895845B9E4FE2CF9091A6
:101400008905E92FF0E040918A059F012F5F3F4F4A
:101410002370332742171306A9F0E557FA4F282FF8
:101420002F7780818078822B60FB87F980839F5F94
:10143000937090938905809187058F5F80938705CE
:1014400081E0089580E00895E1EDF2E090E080E031
:1014500063E671E247E851E22DEC30E27783668380
:1014600051874087338722879787868701967096B2
:101470008830910599F7089581152CE7920741F47A
:1014800020918F0530919005232B11F490E080E09E
:10149000089580E0089581E08093AB020895F89468
:1014A000E82FE295EF70F0E031A1282F2F7081E056
:1014B00090E001C0880F2A95EAF7982F9095932322
:1014C00091A392A1892B82A3789408950F931F93DF
:1014D0008091A505882321F018DE1F910F910895B2
:1014E00014DE0091870210918802209189023091C8
:1014F0008A02600F711F821F931FEFCF9091AB057F
:1015000092FF10C041E0282F2471243009F040E000
:1015100031E0282F2871283009F030E0431711F00E
:101520002CE0822793FF10C041E0282F2471243142
:1015300009F040E031E0282F2871283109F030E02F
:10154000431711F02CE082273091AC0530FF10C01A
:1015500051E0282F2171213009F050E041E0282F7F
:101560002871283009F040E0541711F029E0822753
:1015700031FF10C041E0282F2171213109F040E0F6
:1015800031E0282F2871283109F030E0431711F09D
:1015900029E0822794FD877E089582389105B9F16C
:1015A000B0F48133910509F47DC048F48932910586
:1015B00009F46DC08A32910509F47BC00895853322
:1015C000910509F45FC08933910509F10895833EBF
:1015D0009105D9F138F4803E910529F1823E9105BB
:1015E00079F10895863E9105D9F1873E910509F478
:1015F0003EC0843E910541F52091AC0521FF24C0F9
:101600008091AB0584FD19C087EE90E0089520918C
:10161000AB05237009F05AC02091AC0523FF14C01C
:1016200089E290E008952091AB0520FD38C030910B
:10163000AC0530FF09C024FF43C090E080E008956E
:101640002091AB0522FDF7CF08952091AB0522FD37
:101650003AC03091AC0530FD39C024FFF5CFEDCF55
:101660002091AB0523FFF0CF24FDE7CFCDCF209114
:10167000AB0523FD2EC03091AC0531FFEECF84EEDB
:1016800090E008952091AB0525FFDECFC9CF2091D2
:10169000AB0525FD21C02091AC0523FFD5CF89E303
:1016A00090E0D2CF2091AB0526FFCECF8AE290E02A
:1016B00008952091AB0526FFC7CF81E390E0089500
:1016C00083EE90E0089582EE90E0089580EE90E041
:1016D000089586EE90E0089585E390E008951F93C5
:1016E000CF93DF935ADFEC01C11580E5D807F0F501
:1016F000C11580E4D80708F09AC0C03ED10520F596
:10170000CD3CD10508F082C0C83AD10578F4C53A7D
:10171000D10508F073C0C130D10519F1209709F146
:10172000C430D105F0F4D0E0C0E01BC0C33CD1050B
:10173000D0F7C85AD0E0CC0FDD1FC35ADE4F099056
:10174000D881C02DD4640DC0C11580E2D80708F03F
:10175000CDC0C11581E0D80708F05AC0C83ED105F8
:1017600010F7CE01DF91CF911F910895C03682E529
:10177000D80718F5C03482E5D80708F068C0C03231
:1017800082E5D80708F05CC0C11582E5D80708F4E7
:1017900093C02C2F2695269580E2289F9001112436
:1017A0008C2F8370C1E0D0E002C0CC0FDD1F8A9582
:1017B000E2F7C22BD32BDD68D4CFC03A82E5D8073D
:1017C00060F4C03882E5D80708F456C0CF71D0E085
:1017D000DC2FCC27C46FD06AC4CFC03C82E5D807C9
:1017E00008F45FC0C03E82E5D80708F09CCFDC2F2C
:1017F000CC27CC27DF71C06FD06AB3CFC55AD0E0F9
:10180000C65ADE4FC881D0E0D064ABCFD065A9CF37
:101810008D2F74DE182FCE019927BFDEC12FD0E0A7
:10182000DC2FCC27CC27DF71C82BD92B9ACFCE0148
:101830009927B3DECC27DF70C82BD92BD06A91CF84
:10184000CF71D0E0DC2FCC27C16FD06A8ACF2C2F8C
:1018500026952695277080E2289F900111248C2FD1
:101860008370C1E0D0E002C0CC0FDD1F8A95E2F7A3
:10187000C22BD32BDC6875CF2C2F2695269527708D
:1018800080E2289F900111248C2F8370C1E0D0E06A
:1018900002C0CC0FDD1F8A95E2F7C22BD32BDA688A
:1018A00060CF8C2F8F712ADEC82FD0E0DC2FCC27A1
:1018B000CC27DF71D06255CF8C2F8F711FDE55E0A2
:1018C000D695C7955A95E1F7CF70D0E0DC2FCC279D
:1018D000282F30E084FF06C044E0220F331F4A95D2
:1018E000E1F73327C22BD32BD0693BCF8D2F8F71DC
:1018F00005DE182FCE01992750DEC12FD0E0DC2F56
:10190000CC27CC27DF71C82BD92BD4CF80914B02A9
:10191000882331F010924B0210924A021092490231
:10192000089580959091A10598239093A10508951D
:1019300080959091A20598239093A2050895109206
:10194000200210921F0210921E02089590911D0213
:10195000292F282321F08095892380931D02089543
:10196000809102069091C905981301C008958F5F78
:101970008770FACFA82FA77023E0969587952A95B0
:10198000E1F7FC01EE0FFF1FE80FF91FE60FF71F4D
:1019900050E040E080E0219130E00A2E02C0369510
:1019A00027950A94E2F721703327042E01C0220FF5
:1019B0000A94EAF7822B4F5F5F4F4330510559F786
:1019C0000895903FB9F09A3070F4863098F4282F3B
:1019D00030E06EEF71E0A901E6E09E9F400D511DE1
:1019E0001124CA01C7CF9C5F923020F46BEF71E0E5
:1019F00090E0F8CF80E00895262F277091E001C095
:101A0000990F2A95EAF723E0769567952A95E1F7ED
:101A1000FB01EE0FFF1FE60FF71FE40FF51F50E06D
:101A200040E0682F70E08191DF0111979B01042E47
:101A300002C0369527950A94E2F721702195282750
:101A4000292328272C934F5F5F4F4330510559F7C7
:101A50000895282F862F903F71F09A3068F4263031
:101A600050F4622F70E026E0929F600D711D1124EA
:101A70004EEF51E0C1CF08959C5F9230E0F7622FA6
:101A800070E04BEF51E0F6CF80935A0308959091A8
:101A90005A0321E030E0F90101C0EE0F8A95EAF720
:101AA000D90102C0AA0FBB1F6A95E2F7EA2B01C059
:101AB000220F4A95EAF7892F8E23E81303C0292BBA
:101AC000822FE2CF20952923FBCF21E030E001C017
:101AD000220F8A95EAF7209580915A038223D4CF6A
:101AE000909120028095892380932002282F2770CF
:101AF00059F4891749F09091AC0592FF05C086957D
:101B000086958695E2DF1BCF089521E030E001C085
:101B1000220F8A95EAF780915A03822BB5CF8093E2
:101B200097020895982F92959F7011F0892F94E055
:101B3000282F2695269511F09E5F822F869509F015
:101B40009F5F892F08959C013A9521153F4150F5DB
:101B5000FC01EE27F170BC0166277270AC014427CE
:101B600054709C012227387094FF0EC080E1EF2B47
:101B700009F480E0672B09F08062452B09F080644E
:101B8000232B89F08068089581E0EF2B09F480E031
:101B9000672B09F08260452B09F08460232B19F034
:101BA0008860089580E008950F931F93CF93DF938B
:101BB0008B01EA019091BD05943059F58093E900BD
:101BC0008FEF9091E800815095FD06C095ED9A95B4
:101BD000F1F700008111F5CF8091E80085FF19C071
:101BE00049D9811111C08091E80085FD06C080911E
:101BF000E8008E778093E800F3CFF80181918F01A0
:101C00008093F100219779F78091E8008E77809397
:101C1000E800DF91CF911F910F91089543E050E0CC
:101C2000BC0184E0C1CF46E050E0BC0184E0BCCF01
:101C300040E250E0BC0184E0B7CFCF93DF93EC01EA
:101C400048E050E0BC0181E0AFDF88E0FE01A3EB9B
:101C5000B5E001900D928A95E1F7DF91CF9108955B
:101C6000603229F440E250E0BC0182E09DCF08954B
:101C7000B0E0A0E0EEE3FEE00C9442357C015B01B5
:101C80006A018091860201E010E08A3010F40AE0D7
:101C900010E0C1E0D0E0B501C701F601099581115E
:101CA00004C021960C171D072CF4CDB7DEB7EAE06F
:101CB0000C945E35CC9F9001CD9F300D300D1124DA
:101CC00090E080E045E34A95F1F700000196821725
:101CD0009307C1F7E0CF0F931F93CF93DF93142F98
:101CE000022F843020F5623010F598E0899FE001E2
:101CF000112484E0689FB0011124C60FD71FC75F6D
:101D0000DD4F82E090E0442311F090E080E0632F0B
:101D10008C0F9D1F0E94EF3583E090E0112311F09E
:101D200081E090E0602F8C0F9D1F0E94EF35DF91C6
:101D3000CF911F910F9108951F93CF93DF93122F8F
:101D40008430E0F46A30D0F44630C0F4C42FD0E0E0
:101D5000CC0FDD1F9CE0699FC00DD11D112498E7B9
:101D6000899FC00DD11D1124632FCE0189960E9439
:101D7000EF35612FCE018A960E94EF35DF91CF912A
:101D80001F91089585E290E00E94D335823289F454
:101D900086E290E00E94D335853259F487E290E0E4
:101DA0000E94D33591E08B3409F090E0892F817047
:101DB000089580E0FCCF9B0127583D4F6738714064
:101DC0008105910518F4C9010C94D33580E008957C
:101DD000FF920F931F93CF93DF93F42E843070F50F
:101DE000623060F528E0829F8001112434E0639F17
:101DF000B0011124060F171F075F1D4F82E090E00E
:101E0000442311F090E080E0800F911F0E94D335B1
:101E1000C82FD0E0DC2FCC2783E090E0FF2011F02A
:101E200081E090E0800F911F0E94D3359E01282B06
:101E3000C901CDB7DEB7E5E00C94633590E080E0F2
:101E4000F8CF0F931F93CF93DF93843030F56A3030
:101E500020F5463010F5C42FD0E0CC0FDD1F2CE06C
:101E6000629FC00DD11D112438E7839FC00DD11D85
:101E70001124CE0189960E94D335082F10E0102F2F
:101E80000027CE018A960E94D3359801282BC901DC
:101E9000DF91CF911F910F91089590E080E0F8CFEE
:101EA0002091BB023091BC02232BC9F4703F39F45E
:101EB000603FA9F48091BD029091BE0208957A30EE
:101EC00038F4663060F4843050F4462F672FB9CF71
:101ED0007D3F41F4623018F441E0843050F090E0EE
:101EE00080E008957C3FD9F76230C8F78430B8F7B6
:101EF00040E06ECFCF92DF92FF920F931F93CF936C
:101F0000DF936C0100915A0380919702082BC3E084
:101F1000D0E010E0FC2EC8010C2E02C095958795EC
:101F20000A94E2F780FD0CC02197A0F7F12C8F2DC9
:101F3000DF91CF911F910F91FF90DF90CF90089587
:101F4000B6018C2FADDFCBDB019771F3F0CFCF93D0
:101F5000DF93EC01CFDFBE01A3DFC1DBDF91CF91C7
:101F60000895FC0124812223B9F080819181EFDF63
:101F700092959F70963091F058F4925F9F709230D6
:101F800058F4803F19F030F4883E30F481E0089531
:101F90009A5FF4CF843FD1F380E00895883EB0F398
:101FA000813FD1F7F3CFA6E0B0E0E9EDFFE00C947C
:101FB000493526E0FC01DE01119601900D922A952B
:101FC000E1F7FC01258189819A81222381F0662332
:101FD00071F090DF182F682F89819A813ADD69812D
:101FE0007A81812F5DDF2696E3E00C946535E9DC8C
:101FF000182FF5CFA0E1B0E0E0E0F0E10C943C3523
:10200000CE0101965C0180E1F50111928A95E9F714
:102010000AE110E097E8492E55245394612C712C65
:1020200029E7822E22E0922E0150110921F46096B8
:10203000E0E10C9458356201F1E14F16510461045E
:1020400071042CF080E1C82ED12CE12CF12CA601DA
:10205000B401C5010E94E0358C0C9D1C0D2C000CB8
:10206000EE08FF084C185D086E087F08DDCFAAE077
:10207000B0E0EDE3F0E10C943D35A0908F05B09019
:10208000900581E090E09093900580938F0586E124
:10209000E82E8CE0F82E96E3C92E9AE0D92E10E0B7
:1020A000460100E014C0F30125913491452D602FC5
:1020B000812F42DE82E0680E711C539486E0581234
:1020C000F2CF8CE0880E911C0F5F0A3019F03401BA
:1020D000512CE9CFF7012591349141E060E0812F47
:1020E000FADDF70132962591349140E060E0812FCE
:1020F000F2DDF70134962591349141E061E0812FC2
:10210000EADDF70136962591349140E061E0812FB8
:10211000E2DD88E0E80EF11C1F5F88E7C80ED11CE5
:10212000143009F0BDCF1A8219821C821B821E82D4
:102130001D8218861F8288EC90E09A87898709E2C1
:1021400012E04AE050E0B801CE0101960E940D363F
:10215000065F1F4F093782E0180799F7B092900584
:10216000A0928F052A96EFE00C9459356FEF85E227
:1021700090E00E94EF356FEF86E290E00E94EF352D
:102180006FEF87E290E00E94EF3560E088E290E038
:102190000E94EF356CDF2EDF62E285E290E00E9464
:1021A000EF3565E286E290E00E94EF356BE487E26E
:1021B00090E00C94EF359B01883070F49AE0899F91
:1021C000B0011124675D7D4F4AE050E0C9010E94D3
:1021D000C33590E080E008958FEF9FEF0895AAE067
:1021E000B0E0E5EFF0E10C944A359C0137552F3F04
:1021F000310509F060F4BE016F5F7F4FDCDF892B92
:1022000031F489859A852A96E2E00C94663588EC4B
:1022100090E0F9CF1F93CF93DF93162F8A3031F4DC
:1022200081E099D0DF91CF911F9108958D3011F405
:1022300080E0F7CFC0915703D091580396E0FE019C
:10224000A1E5B3E001900D929A95E1F7803E90F1FF
:1022500086E0FE0111928A95E9F7C0915703D0916B
:102260005803111133C046E050E0BE0181E593E010
:102270000E94A6359E012B573340892B91F52A5F8A
:102280003F4F40915903642F70E0C9010E942635E9
:10229000481B463010F4240F311D211572E037071A
:1022A00010F030E020E025583C4F30935803209345
:1022B0005703B8CFF6E08F9FB00111246A587B4FC7
:1022C00046E050E0CE010E949D35C7CF9E012A5FB7
:1022D0003F4FFE012E173F0731F280818095819399
:1022E000F9CFC90145E0969587954A95E1F741E018
:1022F00050E0BA0102C0660F771F8A95E2F7CB0162
:1023000060917D0570917E05862B972BB9016B5FDF
:102310007F4FE5E076956795EA95E1F702C0440FB7
:10232000551F6A95E2F7842B952B90937E05809339
:102330007D05A5CF1F93CF93DF93EC01162FFE01F0
:102340008491811104C0DF91CF911F910895612F75
:1023500061DF2196F4CFCF93382FE0915703F091AE
:102360005803EB57F34020915903622F70E0CF01DF
:102370000E942635281B822F332361F066E00E94DD
:102380007135C82FC15010F4CF91089560E080E2FC
:1023900041DFF8CF9F01280F311D2115324018F081
:1023A00080E0F0E0E0E08E0F9F2F911D85589C4F5C
:1023B0009093580380935703E7CFBCDF81E0CBCFE6
:1023C000AB0124E630E0BC0188E70E94F83221E04E
:1023D000892B09F020E0822F089580918305909148
:1023E0008605911103C091E089270895882361F043
:1023F00062E070E088EB99E0E3DF811103C0809137
:10240000830508951092830580918305ECCFCF93C7
:10241000C0918305809186058823C9F00E948508B4
:10242000605A75418F4F9F4F60937F057093800571
:102430008093810590938205C11107C062E070E02E
:1024400086EB99E0BDDF811105C0C09183058C2F1B
:10245000CF91089581E080938305F7CF9091AC05EB
:1024600092FB222720F9281771F080FB92F99093B4
:10247000AC056091AB057091AC0584E090E00E94E2
:10248000093682E02DCB0895CF92DF92EF92FF9232
:102490001F93CF93DF9300D000D0CDB7DEB7C090AD
:1024A0008202D0908302E0908402F09085020E9424
:1024B00085086C197D098E099F0911E06436710544
:1024C0008105910568F102D86E5F7F4F8F4F9F4F56
:1024D00069837A838B839C8380913101909132014F
:1024E00086599D4F4091300150E04530510510F024
:1024F00044E050E0BE016F5F7F4F0E94B33586E03D
:1025000090E00E94B634182F882351F00E9485086D
:102510006093820270938302809384029093850279
:10252000812F0F900F900F900F90DF91CF911F91FF
:10253000FF90EF90DF90CF900895B0E0A0E0E3EA45
:10254000F2E10C944435EC0145E050E060E772E0C4
:102550000E94A6358C01C0906102D0906202E0908A
:102560006302F09064020E9485086C197D098E094F
:102570009F09643671058105910518F4011511054F
:1025800041F1809111019091120186599D4F409126
:10259000100150E04630510510F045E050E0BE011A
:1025A0000E94B33582E090E00E94B634C82F8823A1
:1025B00051F00E94850860936102709362028093DB
:1025C0006302909364028C2FCDB7DEB7E8E00C94E1
:1025D0006035C1E0F8CFA1E0B0E0E1EFF2E10C94AA
:1025E0003C35D62E4A015901682E880F7708C30161
:1025F0000E94B634C82E882309F46AC0C30133E0B0
:10260000880F991F3A95E1F7FC01E050FF4F438195
:1026100050E04115510511F041E050E080509F4FCE
:10262000FC016481758166597D4FCE0101960E943F
:10263000B335F40140805180628073800E94850828
:102640006419750986099709643671058105910534
:1026500038F4B701C8010E94AA0999818917C1F10C
:102660006D2C0D2C000C7708C3010E94B634C82EC7
:10267000811106C0C12C8C2D2196E0E10C945835B7
:10268000C30123E0880F991F2A95E1F7FC01E05070
:10269000FF4F438150E0E416F50608F4A70180508F
:1026A0009F4FFC016481758166597D4FC5010E9471
:1026B000B335B701C8010E94AA0999818913DACFFD
:1026C0000E948508F4016083718382839383D3CF52
:1026D000A701B801C5010E94B335CDCFA8E0B0E095
:1026E000E4E7F3E10C94463588E0E82EF12C06E7A8
:1026F00012E09E012F5F3F4F46E652E064E083E028
:102700006ADF082F882389F1909175028091650214
:10271000981759F110E09091790280917802891709
:10272000F1F0E92FF0E0E259FD4F848587FB662741
:1027300060F99F5F937090937902909177029F5F09
:10274000909377028F770E94FF09182F8111E3CFB2
:1027500085E090E00E94B634012F082302C01111D9
:10276000F7CF8091750280936502802F2896E6E06E
:102770000C946235A5E0B0E0E0ECF3E10C94443554
:102780006B0185E0E82EF12C0BE612E09E012F5F35
:102790003F4F4DE552E061E080E01DDF882349F0C6
:1027A00095E0FE013196A8E5B2E001900D929A9570
:1027B000E1F795E0E8E5F2E0D60101900D929A95F7
:1027C000E1F72596E8E00C9460351F920F920FB662
:1027D0000F9211242F933F934F935F936F937F93A7
:1027E0008F939F93AF93BF93EF93FF938091E100FB
:1027F00082FF09C08091E20082FF05C08091E10064
:102800008B7F8093E1008091DA0080FF24C080916B
:10281000D80080FF20C08091DA008E7F8093DA009C
:102820008091D90080FFAAC080E189BD82E189BD85
:1028300009B400FEFDCF81E08093BD058091B20513
:10284000811109C00E941B070E94BC078091E20011
:1028500084608093E2008091E10080FF1AC0809143
:10286000E20080FF16C08091E2008E7F8093E2003C
:102870008091E20080618093E2008091D8008062C4
:102880008093D80019BC85E08093BD0583E08093D8
:1028900051018091E10084FF30C08091E20084FF0B
:1028A0002CC080E189BD82E189BD99B5892F8170F5
:1028B00090FFFBCF9091D8009F7D9093D80090918E
:1028C000E1009F7E9093E1009091E2009F7E9093C3
:1028D000E2009091E20091609093E2009091BE0539
:1028E000992309F451C094E09093BD059091BD05E2
:1028F000943009F482E0809351018091E10083FFDC
:102900002CC08091E20083FF28C08091E100877F86
:102910008093E10082E08093BD051092BE05809116
:10292000E1008E7F8093E1008091E2008E7F8093B2
:10293000E2008091E20080618093E20042E060E08A
:1029400080E00E948A078091F00088608093F00008
:1029500081E08093510180935001FF91EF91BF91ED
:10296000AF919F918F917F916F915F914F913F9127
:102970002F910F900FBE0F901F90189519BC1092B9
:10298000BD051092B20567CF9091E30097FD02C09C
:10299000982FAACF93E0A8CF78941F921FB61F92CA
:1029A00011248F939F93AF93BF938091AE05909125
:1029B000AF05A091B005B091B1050196A11DB11D63
:1029C0008093AE059093AF05A093B005B093B10589
:1029D000BF91AF919F918F911F901FBE1F9018952F
:1029E0002FB7F8948091AE059091AF05A091B005F6
:1029F000B091B1052FBF0895F3DF9C0190919A0526
:102A000080919B05982B21F0309397052093960594
:102A100090919C0580919D05982B21F03093950510
:102A200020939405E091C705F091C805309759F0BF
:102A30000680F781E02D309731F082E08093980591
:102A400088E995E009950895662309F45BC08D3CFB
:102A500031F40E947C09819580939B05CDCF8E3CFB
:102A600019F40E947C09F8CF8F3C31F40E947C0954
:102A7000819580939A05F2CF803D19F40E947C09DC
:102A8000F8CF893D29F40E945A0980939C05E6CF2E
:102A90008A3D21F40E945A098195F7CF8B3D31F48C
:102AA0000E945A09819580939D05D8CF8C3D19F4D9
:102AB0000E945A09F8CF9FE2980F983070F4815D18
:102AC000990B21E030E001C0220F8A95EAF780914E
:102AD0009905822B80939905C1CF8D3D31F480916A
:102AE0009305816080939305B9CF8E3D21F4809149
:102AF00093058260F7CF8F3D09F0B0CF80919305A9
:102B00008460F0CF40919A058D3C59F480919B05EB
:102B100087FF0DC010929B0541110BC010929105CB
:102B200008C08E3C81F480919B0518169CF34423C9
:102B300081F080919C0590919D05892B09F08ECFA5
:102B4000109292058BCF8F3C49F447FFF0CF109243
:102B50009A0580919B058111ECCFE0CF803D19F45F
:102B60001416ACF3E4CF90919C05893D29F4191615
:102B7000F4F610929C05DBCF8A3D19F497FFD7CF6E
:102B8000F8CF90919D058B3D29F497FFD0CF1092FF
:102B90009D05CDCF8C3D19F41916CCF3C8CF9FE21B
:102BA000980F983090F4815D990B21E030E0B901E5
:102BB00002C0660F771F8A95E2F7CB01809590914E
:102BC0009905892380939905B2CF8D3D31F4809189
:102BD00093058E7F80939305AACF8E3D21F480913B
:102BE00093058D7FF7CF8F3D09F0A1CF809193059D
:102BF0008B7FF0CF2F923F925F926F927F928F9256
:102C00009F92AF92BF92CF92DF92EF92FF920F937B
:102C10001F93CF93DF9380918605882309F479C0B1
:102C2000C0918405D0918505DBDE8C1B9D0BC2977E
:102C300008F451C0D5DE90938505809384058BE719
:102C400093E090935803809357038091A50560E02B
:102C5000882309F478C083EF99E06CDB80915A03F4
:102C60000E94920D882339F0813009F160E084EEF2
:102C700099E060DB04C060E08EEE99E09EDB60E0EE
:102C800081EE99E057DB60E08BED99E096DB809177
:102C90005A030E94920D823009F44DC060F08330D7
:102CA00009F44DC060E083EC99E087DB08C060E088
:102CB00089EE99E0E3CF60E085ED99E03BDB60E0F1
:102CC00080EC99E037DB0E94410981FB662760F9BF
:102CD0008AEB99E072DB80917D0590917E05892BCE
:102CE000B1F5809183058823A1F00E9485080091A9
:102CF0007F05109180052091810530918205601B30
:102D0000710B820B930B6F3F7F4F8F4F9F4708F4E0
:102D100064DBDF91CF911F910F91FF90EF90DF90D7
:102D2000CF90BF90AF909F908F907F906F905F906B
:102D30003F902F90089560E08FEC99E0BFCF60E066
:102D400089EC99E0BBCF86EF99E0F4DAC4CF8091AB
:102D50008605882331F280917C058111C2CF57DB33
:102D600020917D0530917E052115310509F4B9CFFB
:102D700080E041E050E0082F10E01A01082E02C068
:102D8000220C331C0A94E2F7B10162237323672BF0
:102D900011F48F5FF0CF90917B0590FF95C0880F65
:102DA000880F880F8093470110924A01895F8093B2
:102DB000480183E080934B0124E630E047E050E097
:102DC00065E471E088E70E94B932892B09F089CF68
:102DD000A80125E0440F551F2A95E1F780917B0556
:102DE00080FF84C0EBE5F3E080E2DF011D928A956D
:102DF000E9F7ACEBB1E008EB11E080ECC82E81E024
:102E0000D82E97E0592E772473948D91E80129915B
:102E10008E01240F352F311D25583C4FE82FF0E04F
:102E2000E55AFC4F90E080E0652C681A872C082E4C
:102E300001C0880C0A94EAF77901A12CE701B99046
:102E40007E01B820662D6A196770962E062E000C3A
:102E5000770BDB2D01C0DD0F9A94EAF77195619530
:102E600071096770772701C0B6946A95EAF7BD2AA1
:102E70006081962E9B289082A39468E0A612DECFF4
:102E8000019631968830910579F6CA16DB0609F06D
:102E9000BCCF04E610E020E230E04BE553E060E414
:102EA00088E70E943933892B09F01BCFE101C095D7
:102EB000D09580917D0590917E05C823D923D0932C
:102EC0007E05C0937D050DCF8295880F8076809317
:102ED00047019801369527953695279520934A0105
:102EE000815E8093480120934B0166CF45585C4F2B
:102EF00004E610E020E230E0D2CFAFE0B0E0E3E85B
:102F0000F7E10C943F358E010F5F1F4F8AE0F80107
:102F100011928A95E9F785E9C82E81E0D82EF12C27
:102F2000E12CAA24A394B12C20EA822E21E0922E37
:102F3000F60181916F018F3F09F442C0F894E82FA8
:102F4000E295EF70F0E021A18F70A50102C0440F5F
:102F5000551F8A95E2F7CA01922F982B91A392A14F
:102F60008095892382A3789400C0EAE9F1E0712C6E
:102F700031E021912F3F09F49DC0A22FA295AF709F
:102F8000B0E090968C9190E02F7002C09595879557
:102F90002A95E2F780FD8EC0832F782A330F8E1694
:102FA0009F0639F7F601319780818F3F11F00E941B
:102FB0004F0A50EA5A95F1F7F801EE0DFF1D7082A5
:102FC0008FEFE81AF80A95E0E916F10409F0B0CF9E
:102FD0004AE050E0B8018BE892E00E94A6350097E5
:102FE00041F02AE0F801ABE8B2E001900D922A9599
:102FF000E1F70091960210E00F541D4F892B09F460
:103000005BC081E080935002EBDC90934F02809391
:103010004E02D12CC090A505CC2009F4A5C07E019C
:10302000EBE0EE0EF11C85E0F70111928A95E9F7CD
:10303000809186028A3008F064C04AEB53E1B70100
:10304000C8010E94380E882309F47EC04DE952E180
:10305000B701C8010E94380E882309F475C04EE6F6
:1030600053E1B701C8010E94380E882309F46CC0EF
:1030700044E452E1B701C8010E94380E882309F4E4
:1030800063C0109286028091950290E045E050E086
:10309000B7018F549D4F0E94A63521E0209357021F
:1030A000892B09F044C0C12C8C2D8D292F96EDE081
:1030B0000C945B3580E071CFD0905002DD2009F494
:1030C000A8CFE0904E02F0904F028ADC8E199F0943
:1030D000059708F49ECF45E050E06BE872E0C80128
:1030E0000E94A635892B59F085E0EBE8F2E0D80183
:1030F00001900D928A95E1F7109250028BCFD12C5E
:10310000FBCFA0905102B09052026ADC8A199B0951
:10311000843F914008F091CF80915702882319F2A3
:1031200085E0F70111928A95E9F710925702A09174
:103130009502B0E0AF54BD4F85E0FE013B96019093
:103140000D928A95E1F7B0CF809186028F3F31F0E2
:103150008F5F809386028A3008F495CF41DC90938C
:10316000520280935102D8CFE0909502F12CA70132
:103170004F545D4F7A0185E0F801ABE6B2E0019073
:103180000D928A95E1F765E070E08BE692E00E948F
:10319000AA0980936A0285E0E0E7F2E0D701019096
:1031A0000D928A95E1F788E0E7E8F5E0A6E7B2E05E
:1031B00001900D928A95E1F768E070E086E792E071
:1031C0000E94AA098093750280907E0290907F02EF
:1031D000A0908002B090810280915302909154029D
:1031E000A0915502B091560288169906AA06BB0610
:1031F00009F45ACF8092530290925402A092550241
:10320000B09256020E948508861A970AA80AB90A3F
:103210008092870290928802A0928902B0928A02DC
:1032200043CF90914B02292F282359F08095892371
:1032300080934B02882331F0D3DB90934A02809332
:103240004902089590E080E0F8CFCF93C091A205A5
:103250008091A105C82B80914B02882301F1C0DB2E
:103260002091490230914A02821B930B8838934186
:1032700010F00E94860C80914B02C82B8091500167
:10328000813081F48091AB0587FF0CC02EE18CED7D
:1032900091E030E0215050F431110E94860C8C2FC7
:1032A000CF91089526E084ED91E0F3CFFC014191A8
:1032B000CF01442379F33F5FEDCF809150018130FE
:1032C00061F58091AB0587FF28C0BFDF8093DB01EC
:1032D00040E250E061E272E08AED91E00E94A635A2
:1032E000892BD1F080E2EAEDF1E0A1E2B2E00190B9
:1032F0000D928A95E1F7E091C705F091C8053097E6
:1033000059F00480F581E02D309731F086E080930C
:10331000DA018AED91E00995089597DF8093D20153
:1033200048E050E061E472E082ED91E00E94A63551
:10333000892B91F388E0E2EDF1E0A1E4B2E00190A5
:103340000D928A95E1F7E091C705F091C805309795
:1033500019F30280F381E02D3097F1F282ED91E0D4
:10336000DACFCF93DF93EC014A855B856E857F854D
:103370000E9454098B810E94910C8C810E94980CB0
:103380009CDF86E0FE0111928A95E9F7DF91CF91EB
:103390000895CF93DF93EC018D8181FD16C082608B
:1033A0008D838091A1059B81892B8093A1058091BC
:1033B000A2059C81892B8093A2057FDF48855985D2
:1033C0006E857F85CE010E9454091092A40510924B
:1033D000A3058D8180FD02C0CE01C3DFDF91CF91B7
:1033E00008951092A20580915001813021F58091BD
:1033F000AB0587FF20C0ECEDF1E08EE1DF011D920F
:103400008A95E9F790E080E00E941A0990E080E058
:103410000E94F3081092A10550DF86E0E8E9F5E08C
:10342000DF011D928A95E9F710929105109292059D
:1034300010929305E1CAE4EDF1E086E0DFCFAAE265
:10344000B0E0E5E2FAE10C9449358FEB95E020918C
:10345000F100DC012D93CD01B5E0873C9B07B9F766
:103460008091C005833009F472C0B8F4813009F44A
:1034700049C0823009F4B6C08091E80083FF3EC1A4
:103480008091BF059091C0059A3008F037C1E92FAF
:10349000F0E0EA5DF94C0C9490358A3009F491C063
:1034A0008B3009F471C0893039F78091BF058132C2
:1034B00019F78091C3059091C405009711F0029708
:1034C000D9F68091E800877F8093E8008091E8003A
:1034D00082FF38C09091F3008091F200029731F49E
:1034E0008091F100813011F0863021F48091F1005B
:1034F00080934F018091E8008B778093E8000E94D1
:103500006B07BACF8091BF05813A09F0B5CF8091A2
:10351000E800877F8093E8008091C3059091C405FF
:10352000892B61F468E083EB95E070E00E94160857
:103530008091E8008B778093E8009ECF60E090E078
:1035400080E0F3CF8091BD058111C0CF95CF8091F0
:10355000BF05813A09F090CF8091C3059091C405D1
:10356000892B09F089CF8091E800877F8093E8005C
:103570008091E80080FFFCCF809150018093F100A2
:103580008091E8008E77B9CF8091BF05813209F034
:1035900073CF8091C3059091C405892B09F06CCF3E
:1035A0008091E800877F8093E8000E946B0781E0AC
:1035B0009091C105911101C080E08093500111DF0D
:1035C0005BCF8091BF05813209F056CF8091E80032
:1035D000877F8093E8000E946B078091C2058093EB
:1035E0004E014ACF8091BF05813A09F045CF8091C5
:1035F000E800877F8093E8008091E80080FFFCCF9F
:1036000080914E01BBCF803899F0823809F076C0A6
:103610008091C3058F70873008F070C08093E900F7
:103620008091EB0085FB882780F91092E90006C0A5
:103630008091BB059091BC05911182609091E8004A
:10364000977F9093E8008093F1001092F1008091B1
:10365000E8008E77C3C1882309F4B0C1823009F035
:103660004DC08091C1058111B4C18091C3058F7097
:103670002FEF280F263008F041C08093E9002091F9
:10368000EB0020FFA6C1933031F48091EB00806203
:103690008093EB009EC19091EB0090619093EB00C2
:1036A00021E030E001C0220F8A95EAF72093EA007A
:1036B0001092EA008091EB008860EACF81111EC071
:1036C0001091C1051F778091E3008078812B809352
:1036D000E3008091E800877F8093E8000E946B07F9
:1036E0008091E80080FFFCCF8091E30080688093A8
:1036F000E30082E0111183E08093BD058091E80032
:1037000083FF0AC08091E800877F8093E800809162
:10371000EB0080628093EB00AA96E3E00C946535A1
:103720008058823058F72091C1053091C2052C3D58
:10373000E3E03E07A1F583E08A838AE289834FB7FD
:10374000F894DE01139620E03EE051E2E32FF0E032
:1037500050935700E49120FF03C0E295EF703F5F64
:10376000EF708E2F90E0EA30C0F0C7968D939D9356
:103770002F5F243159F74FBF8091E800877F8093F6
:10378000E8006AE270E0CE0101960E94160880917E
:10379000E8008B778093E800B1CFC096E7CF8091A7
:1037A000C3059091C405432F55274330510509F4B3
:1037B0004AC078F54130510509F485C08BE590E0A9
:1037C000E6E3FCE04230510509F098CF2091E80093
:1037D000277F2093E8002091C5053091C605821708
:1037E000930708F49C0140E02115310509F070C0F1
:1037F00041116EC08091E80082FDC9CF8091BD0566
:10380000882329F2853019F28091E80083FFF2CFF6
:10381000BECF4132510509F447C04232510509F08B
:103820006DCF8330910508F069CFFC01EE0FFF1FCB
:10383000ED53FE4F0190F081E02D80549E4FDC014E
:103840008C9190E01DC0332721303105E9F021151E
:10385000310579F022303105F9F02330310509F0D6
:103860004DCFE3EAFCE0E4918E2F90E0E3EAFCE048
:1038700007C0EBEEFCE0E4918E2F90E0EBEEFCE075
:10388000009709F43BCFA2CFEFECFCE0E4918E2F40
:1038900090E0EFECFCE0F4CFE1ECFCE0E4918E2F63
:1038A00090E0E1ECFCE0ECCF8330910508F026CF0E
:1038B000880F991FFC01E753FE4F0190F081E02D26
:1038C00089E090E083CF82E190E0E1E9FCE07ECF07
:1038D0008091BD05882309F45ACF853009F457CF6C
:1038E0008091E80083FD53CF8091E80082FD82CF74
:1038F0008091E80080FF78CF9091F3008091F200F2
:103900002115310519F08830910550F041E00897F4
:1039100009F040E08091E8008E778093E80064CF62
:1039200044914093F1003196215031090196E8CF3E
:10393000803809F0E3CE8091E800877F8093E8002B
:103940008091BE058093F10082CE8111D7CE109177
:10395000C105123008F0D2CE8091E800877F8093B5
:10396000E8001093BE050E946B07112311F084E05C
:1039700005C08091E30087FDFACF81E08093BD050B
:1039800042E061EC81E00E948A0742E261EC84E05F
:103990000E948A0742E261EC82E00E948A0742E2CA
:1039A00060EC83E00E948A078091BD05843021F09D
:1039B00081E080935101A2CE82E0FBCF8091C105CE
:1039C000813009F09BCE81E0933009F080E0809354
:1039D000BC051092E9008091E800877F8093E800A1
:1039E0000E946B078BCE1F920F920FB60F9211247D
:1039F0002F933F934F935F936F937F938F939F93F7
:103A0000AF93BF93CF93DF93EF93FF93D091E900F0
:103A1000DF708091EC00C82FC17080FDC0E810926B
:103A2000E9008091F000877F8093F000789407DDB3
:103A30001092E9008091F00088608093F000CD2B17
:103A4000CF70C093E900FF91EF91DF91CF91BF91CB
:103A5000AF919F918F917F916F915F914F913F9126
:103A60002F910F900FBE0F901F901895BADC2FEF7B
:103A700084E39CE0215080409040E1F700C00000CA
:103A800088E19AE00FB6F894A895809360000FBE85
:103A900090936000FFCF882319F00E94910C0DCC09
:103AA0000895882331F09091A105982B9093A1055A
:103AB00004CC0895882319F00E94980CFECB089539
:103AC000882331F09091A205982B9093A205F5CB15
:103AD0000895882361F19CEF980F913A18F40E94A1
:103AE0009408EBCB90E2980F983050F4877091E0F7
:103AF00001C0990F8A95EAF7892F0E94980CF1CF9F
:103B00009BE5980F933020F490E080E00C941A0924
:103B100098E5980F9B3120F490E080E00C94F30836
:103B200093E3980F933118F460E00C9424150895F2
:103B3000CF93C82F8823A1F18CEF8C0F813A90F599
:103B4000809150018130F9F48091AB0587FF1BC053
:103B5000EC2FE695E695E695F0E0E652FE4F828181
:103B600090E04C2F477021E030E002C0220F331F5D
:103B70004A95E2F782239323892B71F08C2F0E94C0
:103B800094089BDB09C0E4EDF1E08191C817B1F323
:103B900081E0EA3DF807C9F78C2F0E94BF088DDB52
:103BA000CF91089580E28C0F883068F4C77021E0CF
:103BB00030E001C0220FCA95EAF78091A205822B5E
:103BC0008093A205ECCFEBE5EC0FE33040F4F0E09E
:103BD000E65AFE4F808190E00E941A09E1CFE8E5A5
:103BE000EC0FEB3150F4F0E0EE0FFF1FE35AFE4F05
:103BF000808191810E94F308D3CF83E38C0F8331BE
:103C000078F661E08C2F0E942415CACF1F93CF93C2
:103C1000DF93182FEB018CDF209731F4812F59DFD0
:103C2000DF91CF911F9108958FE99FE00197F1F700
:103C300000C000002197F0CFB0E0A0E0E2E2FEE19A
:103C40000C9444356B01C42FD22FFC01858188234D
:103C5000A1F04093A0050E94F01490939F058093DB
:103C60009E05C77081E001C0880FCA95EAF728DF7A
:103C7000CDB7DEB7E8E00C9460351091A0051413C1
:103C800037C0E0909E05F0909F050E94F0148E19B9
:103C90009F097C01C6010E94EF10E816F90640F565
:103CA000C0E2CD0F1D17B1F080E2810F883040F4E3
:103CB000177081E0012E01C0880F0A94EAF7FADE3E
:103CC000C83040F481E09D2F977001C0880F9A950D
:103CD000EAF7F6DE6AE070E0802F98DFC83040F641
:103CE000D77081E001C0880FDA95EAF7E3DEC0CF34
:103CF000C77081E001C0880FCA95EAF7F7CFB0E03E
:103D0000A0E0E5E8FEE10C944235FC018AE0A82E33
:103D1000DF012D918D01222309F4D5C0213009F056
:103D200062C08181813081F482818F010D5F1F4FDC
:103D30006AE070E0893311F460E570E067DFEFE37B
:103D4000FCE93197F1F70BC0823061F48F010D5F10
:103D50001F4F8281EDDE8FE39CE90197F1F700C0F0
:103D600000002AC0833051F48F010D5F1F4F828104
:103D7000B0DEAFE3BCE91197F1F7F1CF8F010E5F31
:103D80001F4F843081F482818F010D5F1F4F30E01F
:103D900020E0682F6053770BAB016A30710570F03B
:103DA00021153105B9F4EFE3FCE93197F1F700C0D3
:103DB0000000882309F487C0F801AACFA29EC001A1
:103DC000A39E900D11249A01280F391FF8018191AB
:103DD0008F01DFCFAFE9BFE01197F1F700C000001E
:103DE00021503109DDCFE22FF0E0E15EF24FB490D7
:103DF000822F86958695869590E0FC01E15FF24FD3
:103E0000E4902770F12C022E02C0F594E7940A94F6
:103E1000E2F7F1E0EF22FF24FC01E150F34FC49000
:103E2000D12C022E02C0D594C7940A94E2F731E057
:103E3000C322DD24FC01E151F34FC491D0E002C064
:103E4000D595C7952A95E2F7C170DD27E114F104F5
:103E500041F081EE6DDE8FE39CE90197F1F700C040
:103E60000000C114D10441F086EE62DEAFE3BCE98C
:103E70001197F1F700C000006AE070E08B2DC6DEFC
:103E8000EFE3FCE93197F1F700C00000C114D10461
:103E900041F086EE1EDE8FE39CE90197F1F700C04A
:103EA0000000E114F10441F081EE13DEAFE3BCE960
:103EB0001197F1F700C00000CD2B09F47DCF6AE027
:103EC00070E08CE23BCFCDB7DEB7EAE00C945E3514
:103ED0009091AC0592FF10C098E0899F9001112449
:103EE000622B609320020E94850D0E94F014909333
:103EF0001F0280931E0208950C94850DABE1B0E083
:103F0000E4E8FFE10C9449354E8B5F8B688F798F25
:103F10008A8F9B8F91111092A1051D8A86E0FE0168
:103F20007696DE011F9601900D928A95E1F78091B9
:103F3000AC0582FF1CC00E94F01420911E0230913B
:103F40001F02821B930B8838934120F0809120023E
:103F500082FF7EC00E94F0142091490230914A02F3
:103F6000821B930B8838934110F00E94860C8B893A
:103F7000882351F061E0CE010F960E94D30F61E0DB
:103F8000CE010F960E94D30F87E0FE013F96DE011F
:103F9000189601900D928A95E1F7CE0108960E943D
:103FA000762881110CC087E0FE013896DE0111965B
:103FB00001900D928A95E1F78C8581110BC017E075
:103FC000809102069091C905891330C06B96E3E099
:103FD0000C9465352091C90530E0C90101968770C0
:103FE0009927409102064817190699F097E0929F89
:103FF000D001939FB00D1124A653BA4FFE01319604
:1040000001900D929A95E1F78093C9050E94B00C3A
:10401000D6CFE7D91092C9051092020687E0E6E1F3
:10402000F2E0DF011D928A95E9F7C9CF819FC001B7
:10403000112486539A4F0E947628882339F2809162
:10404000020690E001968770992780930206B8CF08
:1040500082E00E94700D7ECFACE0B0E0E2E3F0E2DF
:104060000C94433580E00CEF93E0F92EEE24E394BA
:104070002DEFD22E32E0C32E90918A052091890532
:10408000291709F452C0E92FF0E0E557FA4F1081E3
:1040900017FBBB24B0F81F779F5F937090938A053E
:1040A000809188058F5F80938805B11008C00E94B9
:1040B000F0141F8308879A878987FB8607C00E94B0
:1040C000F0141F83D8869A878987CB86EC864F8128
:1040D000588569857A858B859C8510DF8FE39CE9FF
:1040E0000197F1F700C00000BB20B9F00E94F01466
:1040F0001983DA829C838B83CD821E8249815A8107
:104100006B817C818D819E81F9DE8FE39CE9019733
:10411000F1F700C0000081E0AFCF0E94F0141983D6
:104120000A839C838B83FD82E8CF2C96E9E00C9474
:104130005F35A6E0B0E0EFE9F0E20C9448358C0181
:104140009093BE028093BD02011580E21807A8F487
:10415000802FBFDCC8010E94A30D9801205E3109A9
:104160002830310518F00115110529F4A3DC269635
:10417000E4E00C9464358FDCFACF80EF89838A8386
:104180000E94F0148160682F9C838B8349815A813F
:104190007C8181E090E0B2DEEACF0F931F93CF9352
:1041A000DF938C01EB0167EC72E08C2F0E94DB1037
:1041B000892BA1F48FE39CE90197F1F700C000007F
:1041C000DD27C154DD4F8881F801128218828330C7
:1041D000E9F048F4813059F0823081F0DF91CF91DD
:1041E0001F910F9108958430B1F08530B9F7809117
:1041F000C7029091C802009789F306C08091C90256
:104200009091CA02009799F394DFE8CF8091CB0296
:104210009091CC02F7CF8091CD029091CE02009781
:1042200099F72091C7023091C8028091C9029091FC
:10423000CA0221153105F9F2009731F7C901E4CF1F
:10424000A6E0B0E0E6E2F1E20C9448358C019093F0
:10425000BE028093BD02011580E21807A8F4C801D0
:104260000E94A30D9801205E31092830310518F015
:104270000115110539F424DC802F5ADC2696E4E080
:104280000C9464350EDCF8CF80EF89838A830E941A
:10429000F0148160682F9C838B8349815A817C81D3
:1042A00081E091E02BDEEACFCF93DF93EC01C8DF12
:1042B0008FE39CE90197F1F700C00000CE0139DFE0
:1042C000DF91CF9108950F931F93CF93DF938C01CC
:1042D000862F67EC72E00E94DB10892B99F4C09165
:1042E000C702D091C802209769F0F801828183301B
:1042F00039F4CE01D9DFCE01D7DFCE01D5DF02C040
:104300008430D8F7DF91CF911F910F9108950F93CB
:104310001F93CF93DF938C01EB0167EC72E08C2F3E
:104320000E94DB10892B09F059C0FE01FF27D8013C
:1043300012968C911297E154FD4F8130B9F4159685
:104340009C9192FF02C080830AC090FFFCCF82E064
:1043500080838091C9029091CA020097B9F480913C
:10436000C7029091C8020097C9F110C08230A1F530
:1043700015968C9182FD26C080FD0AC083E0808363
:104380008091CB029091CC020097F1F059DF26C0CA
:1043900084E080838091CD029091CE020097B1F7A6
:1043A0008091C7029091C8020097E9F07DDF80916B
:1043B000C9029091CA02009749F78091C702909173
:1043C000C802E4CF85E080838091C7029091C80243
:1043D000009721F069DFF1CF86E08083DF91CF91F4
:1043E0001F910F9108958091C9029091CA02BBCF8D
:1043F000ACE0B0E0EEEFF1E20C943B357C01DC0187
:1044000014968C91882309F41BC261E0C7010E94B5
:10441000D30F8C01F7018581882331F18091A305A9
:104420009091A405009701F108171907E9F0FC0124
:10443000FF27887F9927892B09F079C0A4E0EE0F28
:10444000FF1FAA95E1F7EF52FD4F858184608583B8
:1044500011830083CF010E94C9191092A10561E068
:10446000C7010E94D30F8C01D70115968C91882328
:1044700009F4EFC0980137572038310508F0E9C03A
:10448000003108F0CDC166E871E080E090E00E9464
:10449000DB0E8111C5C1812C912C540101114AC040
:1044A00074E0372E9E012F5F3F4F69010FEFD60159
:1044B000E32D1D92EA95E9F724013501FFEF4F1A2C
:1044C0005F0A6F0A7F0AC501B4010E94DB0E89836F
:1044D000882309F4A5C1813039F5A50194012E5F27
:1044E0003F4F4F4F5F4F2D833E834F835887C3010C
:1044F000B2010E94DB0E182F8A83882309F490C131
:104500008FEF810F8330B8F52401350133E0430E7E
:10451000511C611C711C6D817E818F8198850E9468
:10452000DB0E8B838823F9F0C601E9DB1CC0F0E0C9
:10453000E0E08BCFB7E88B16B1E09B06A104B10495
:1045400009F46EC1C501B4010E94DB0E811101C0E6
:104550000150EFEF8E1A9E0AAE0ABE0A9FCF498421
:104560005A846B847C8453014201A1CF4D805E80CC
:104570006F807884F8CF8BEF810F8330A0F5D50161
:10458000C4010396A11DB11D89879A87AB87BC879B
:104590006D817E818F8198850E94DB0E8B838823BD
:1045A000F1F22401350194E0490E511C611C711C8B
:1045B00069857A858B859C850E94DB0E8C83882398
:1045C00091F28B819C818130AFEF9A0710F0982F88
:1045D0008827163021F0173021F066DEC4CF30DE98
:1045E000C2CFA7DDC0CF143009F0C0CF6D817E816E
:1045F0008F8198850E94DB0E182F24013501B4E0CD
:104600004B0E511C611C711CC501B4016D5F7F4FC5
:104610008F4F9F4F0E94DB0E112309F401C18823A5
:1046200009F4FEC0E82FE150FF0B0E9FC0010F9F61
:10463000900D1124412F4150550B840F951F019768
:1046400008F491CFAFE9BFE01197F1F700C0000087
:10465000F6CF6801E7E5DE1A8111AAC0FFEFCF1699
:10466000D10411F008F0AAC067EC72E08C2D0E9412
:10467000DB10892B31F5C60154E0880F991F5A953C
:10468000E1F7FC01EF52FD4F2281213009F07BC0A0
:104690002091C7023091C802232B99F02091C902C2
:1046A0003091CA02232B69F02091CB023091CC02C9
:1046B0004091CD025091CE02242B352B232B09F4AF
:1046C0006CC0C801887F9927892B09F0A9C0F8011F
:1046D000FF2744E0EE0FFF1F4A95E1F7AF014F526D
:1046E0005D4F6A01D70115968C91EA52FD4F90817A
:1046F00080FB90F99083882309F46EC00E94F01427
:104700009093A4028093A302F60182818F5F82833B
:104710008091A1059091A205892B838380914B0202
:1047200084834681578166857785C6010E94540936
:10473000D60115968C9181FF4CC090E080E090935B
:10474000A3058093A405F7018581882309F42DC46E
:104750001092A005980130572332310508F011C49A
:1047600084E090E00E94DB359093AC058093AB052C
:10477000F801E150F047E232F10508F089C0E05D50
:10478000F94C0C949035223009F09BCF2091CB024C
:104790003091CC02232B09F494CFFC01EA52FD4F57
:1047A00020812E7F20838F529D4F0E94C91989CF6F
:1047B0002FEFC216D10409F008F483CFF801E851B5
:1047C000FC47E730F10508F0BECFEE5AF94C0C94E7
:1047D0009035902F812FB3CFFA014485558566859A
:1047E0007785C6010E945409D60115968C9181FFE8
:1047F000AACFC6010E94B1198091A3059091A4058A
:104800000817190709F09FCF1092A4051092A3056D
:104810009ACF06E221EE41EE6AE17CE7C7010CDAAD
:1048200080912002877061F0D70115968C918823C2
:1048300039F08091AC0582FF03C082E00E94700DC8
:104840002C96E1E10C94573507E225EE45EE6BE13D
:104850007CE7E4CF06E221EE40EE68E17CE7DECFC4
:1048600007E225EE44EE69E17CE7D8CF06E221EECF
:1048700042EE6CE17CE7D2CF07E225EE46EE6DE139
:104880007CE7CCCF08E221E045EE6EE17CE7C6CFC5
:104890008091AB0581608093AB0595C08091AC059C
:1048A00088608093AC058FC08091AB058260F3CFA8
:1048B0008091AB058460EFCF8091AB058860EBCF32
:1048C0008091AC058160EDCF8091AC058260E9CF2D
:1048D0008091AB058061DFCF8091AB058062DBCF3B
:1048E0008091AB058064D7CF0E94F1198091AB0510
:1048F0008068D1CF8091AB058C60CDCF8091AC0525
:104900008360CFCF8091AB058E7FC5CF8091AC0502
:10491000877FC7CF8091AB058D7FBDCF8091AB05E1
:104920008B7FB9CF8091AB05877FB5CF8091AC05E8
:104930008E7FB7CF8091AC058D7FB3CF8091AB05D3
:104940008F7EA9CF8091AB058F7DA5CF8091AB05E0
:104950008F7BA1CF0E94F1198091AB058F779BCF00
:104960008091AB05837F97CF8091AC058C7F99CFE9
:104970008091AB0582FB992790F921E0922790FB6B
:1049800082F990FB83F987CF8091AC05982F9095A1
:1049900091708E7F892B90FB81F983CF9091AB052D
:1049A000892F8F7B96FF806476CF0E94F1199091BA
:1049B000AB05892F97FB87F980586DCF61E08EE0BA
:1049C00090E00E94EF356091AB057091AC0584E0FA
:1049D00090E00E9409360E94F11922CF60E0EFCFEB
:1049E0009091AB05892F8F7E94FF806154CF909179
:1049F000AB05892F8E7F90FF81604DCF9091AC05E4
:104A0000892F877F93FF88604CCF85E3C9C285E3F8
:104A1000D5C281E00E94850D43E062E081E00E9402
:104A2000470DFECE81E00E94650DF6CF82E0F2CF09
:104A3000882381F003303CE7130709F47AC008F0BB
:104A40005DC001155CE7150709F466C001301C471D
:104A500009F475C0F701858100811181882309F46B
:104A60007CC0C8010E947A0FD82E682FC8010E940E
:104A7000290DB8018D2D0E94500F0E946F0B8C01E3
:104A8000882ED7011596CC9015971696BC90B294A7
:104A90003FE0B32280912002877009F1AC2CCC203A
:104AA000F9F0812F807F803469F080E2800F8830B8
:104AB000B0F0812F807E803229F4B1E0B01778F415
:104AC000BB2069F08091AC0582FF09C082E00E94A2
:104AD000700D809120028770AA24A3948111A12CCB
:104AE000912E92942FE09222EBE0E91508F495C004
:104AF000E92DF0E0E75AF94C0C9490350B359CE722
:104B0000190749F10C35ACE71A07D9F00A351C47EB
:104B100009F0A0CF81E01CC00E94F119EFEFF4E38F
:104B20002CE0E150F0402040E1F700C000000E947E
:104B300074086FEF7FEF90E080E00E9409360E94DA
:104B4000361D8091AC0582FB882780F991E089278A
:104B50000E942E127FCF80E0FBCFC8010E94E10CA3
:104B6000D82E87CFF12FFF70DF2E107F19F0D2944F
:104B700090EFD922CC20B9F0DD2069F080E2800FDF
:104B8000883010F0811009C08091A205D82AD092F7
:104B9000A2050E945D19802F3EC08091A105D82AF0
:104BA000D092A105F6CF802F0E94691DDD20A9F1CA
:104BB000005E8D2D083010F0811003C00E94980C0B
:104BC00002C00E94910C0E945D1927C0212F2F70F6
:104BD000D22E107F103219F0D29480EFD822882084
:104BE00051F031E0831609F470C0CC2009F47CC088
:104BF000BB2061F1D0CF8091AC0582FD23C0CC20D9
:104C0000D1F0DD2039F08091A205D82AD092A205FA
:104C10000E945D1980E00E94981D292D2850330BB9
:104C20002430310508F094C10E94410960E0C701B9
:104C30000E94D30F05CE80E00E94691DDD2069F33C
:104C40008D2DBCCFCC2061F1B11004C08D2D0E9400
:104C5000601DE3CF41E0B41210C010914B028D2DC6
:104C60008123D816D1F20E94F01490934A028093C7
:104C70004902D12AD0924B02D0CF55E0B512CDCF08
:104C80008D2D0E94601D8D2D0E94111980911D0295
:104C90009D2D9823D91609F2D82AD0921D02BDCF96
:104CA000B1100AC08D2D0E945A1D8D2D0E94111920
:104CB0008D2D0E94A60CB1CF81E0B812AECF8091AD
:104CC000A2058D2109F4A9CFEDCFCC2029F095E0E4
:104CD0009B1508F4A2CFBACFA4E0AB1508F49DCF82
:104CE0008D2D0E945A1D99CFBB20D1F3B9E38B12B1
:104CF0000DC0EFEFF7EE23E0E150F0402040E1F788
:104D000000C00000802F0E94691D87CF8FE39CE9BF
:104D10000197F1F7F5CF812F86958695837061F025
:104D2000813009F07ACFC8019370C11002C080E0D1
:104D300090E00E94F30871CFC8019370C11002C0C7
:104D400080E090E00E941A0968CF6C2D802F0E94AD
:104D5000241563CF812F837089F5C1105ECF402F5A
:104D6000429546954770440F440F802F8F70042E54
:104D700001C0880F0A94EAF7202F207104FF07C0B2
:104D80002FE030E001C0220F4A95EAF720951695F2
:104D900016951370123069F050F43091970211306B
:104DA00029F0822B83230E948F0D37CF832B822BF8
:104DB000FACF282B809197028227F5CF8695CC20B9
:104DC00011F0812F8170882309F427CF402F42955D
:104DD00046954770440F440F802F8F70042E01C0FA
:104DE000880F0A94EAF7202F207104FF07C02FE0F4
:104DF00030E001C0220F4A95EAF7209516951695E6
:104E00001370123069F050F430915A03113029F0C8
:104E1000822B83230E94440D00CF832B822BFACF59
:104E2000282B80915A038227F5CF1F70CC2029F0C0
:104E3000812F0E94850D802F0ACF802F0E945A1D3E
:104E4000812F0E94650DE9CE802F92EF8916B1F176
:104E5000981570F0A0EF8A16D1F0B1EF8B1691F093
:104E6000CC2009F461C0B11096CE812F8F712AC079
:104E7000E3EF8E1651F1F4EF8F12F2CF8091AC0573
:104E800082FD2FC0812F8F71CC20D9F21BC0CC2086
:104E900081F024E02B1508F4C0CE1F7181E090E072
:104EA000012E01C0880F0A94EAF790915A038927CE
:104EB000B1CF35E03B1508F4B0CEEFCF812F8F7125
:104EC000C110BFCF0E94850DA8CE80E0CC2009F490
:104ED000A1CF1F7181E0012E01C0880F0A94EAF76B
:104EE00099CFCC20B1F0809120028770843041F4BA
:104EF0000E949F0C812F8F710E94650DA12C8DCE79
:104F000044E063E04B15D0F3812F8F710E94681F3E
:104F1000F5CF54E05B1520F40E949F0C64E0F4CFC1
:104F200081E00E94700DEACFBB2079F0893341F413
:104F30008FEF97EEA3E081509040A040E1F7E0CEE4
:104F4000EFE3FCE93197F1F7DBCE812F8F7179CF59
:104F5000AA2009F46BCE8091200280FD67CED70194
:104F600015961C928695869586950E94850DC7019B
:104F70003FDA809120028695869586950E94650D80
:104F800055CE0631BCE71B07E1F48091A2058A7A71
:104F900091E009F490E09093FA01811136CD89E215
:104FA0000E94BF080E945D193BCC0631ECE71E074A
:104FB00071F58091FA0181112ACD89E20E9494084D
:104FC000F1CF0737FCE71F0709F423CD08372CE79B
:104FD000120709F42BCD9801205E324520323105AD
:104FE00008F026CD811136CD0F7181E090E09C0153
:104FF00002C0220F331F0A95E2F78901622F83E076
:1050000090E00E94EF35802F0E948F0D09CC07376A
:105010003CE7130709F406CD08374CE71407D9F627
:1050200082E001CDB0E0A0E0E8E1F8E20C94453583
:1050300080911C02807F09F050C080911B02882360
:1050400009F44BC0E091020687E0D82E8091C90593
:105050008E1709F442C00E2F10E0ED9DF0011124CF
:10506000E653FA4F84818823E9F1D09EE001D19E76
:10507000D00D1124FE01E653FA4F91818091170261
:10508000981330C090818091160298132BC08581AF
:10509000811128C0E280F38080911802909119025A
:1050A000E81AF90A60E086E192E00E94D30F0E94BC
:1050B000EF10E816F906B0F480911C028F70806141
:1050C00080931C02C053DA4F88818F70806188837F
:1050D00086E192E08DD90E94B00CCDB7DEB7E7E053
:1050E0000C946135F8013196E770B0CFA4E1B0E0DF
:1050F000ECE7F8E20C943D358C0186E0F801DE0126
:105100001F9601900D928A95E1F7F801F480E580F1
:1051100086E1882E82E0982E80911A02811128C0A3
:10512000F11003C0FF24F3941BC0EE20F1F0C8017E
:105130000E94B10FF82E8823C1F087E0F801A6E1A4
:10514000B2E001900D928A95E1F780911A028130C8
:1051500031F480911602909117020E94A70F62DF2E
:105160008F2D6496EFE00C945935C80141D9DACF00
:10517000C280D380B0901B028091180290911902D6
:105180003601681A790ABB2009F4F2C05080A18068
:1051900060E086E192E00E94D30F0E94EF10681653
:1051A000790608F0A0C0FF2009F4BCCF80911C0252
:1051B000382F307F20911702F8019181311156C0AC
:1051C000FE2C291313C020911602908129130EC0C2
:1051D000E11045C08F70806180931C0286E192E0EF
:1051E00007D980911C02F8018683BACFE11037C03D
:1051F0006A2D852D0E94EE066A2D852D0E94EE06F1
:10520000E82E8111ADCF5F86A88A8F8598890E948C
:10521000A70F292F22952F70243058F49F70223029
:1052200080F0992391F0F8019681907F71F4FE2C23
:1052300097CF2A5F2F70223060F0C801D9D8EB2CAD
:10524000F6CF992311F0882391F3805E883078F3AC
:10525000F4CF803F60F3815F833078F7E8CF8091AF
:105260001C02816080931C02F12C7ACF291314C098
:1052700020911602908129130FC0E1100DC0868382
:10528000C801B6D887E0F801A6E1B2E001900D921E
:105290008A95E1F7FB2C64CFC8010E94B10F8823E7
:1052A00009F463CFEE2009F460CF80911C028032B4
:1052B00080F0209116023091170239872887DB860B
:1052C000CA8690911A029C871D868E87CE01089609
:1052D0008FD887E0F801A6E1B2E001900D928A959F
:1052E000E1F7A0DE1FCF80911C02982F907F49F438
:1052F00086E192E07DD887E0F40111928A95E9F782
:10530000B3CFFF2009F40ECF20911702F80191814D
:10531000291310C020911602908129130BC0E110AF
:1053200009C08683C80164D887E0F40111928A9588
:10533000E9F7B0CFC8010E94B10F882309F415CF57
:10534000EE2009F412CF80911C02803208F4C1CF04
:1053500020911602309117023A832983DC82CB8296
:1053600090911A029D831E828F83CE010196B0CF49
:1053700060E086E192E00E94D30F0E94EF10681671
:10538000790608F0B8CFFF2009F4CCCEFE2CEE2031
:1053900009F4EBCE90911702F801818198132CC08B
:1053A000909116028081981327C0809118029091E5
:1053B0001902C81AD90AF8ECCF16D104A0F49091BA
:1053C0001C0290FD10C0907F71F080911C02F801CA
:1053D0008683903F31F0982F907F905F8F70892B5C
:1053E0008683C80105D887E0F801A6E1B2E0019004
:1053F0000D928A95E1F7B4CEC8010E94B10F8111D8
:1054000068CF80911C02816080931C02C8010E94B9
:10541000F821A6CEA6E0B0E0E0E1FAE20C9448352F
:105420000E94F0148C0180914C0290914D028017E3
:10543000910781F019821A820E94F014682F498125
:105440005A81792F80E090E00E947E1F10934D02D8
:1054500000934C022696E4E00C9464351F921FB62C
:105460001F9211248F939F93AF93BF938091AD05AB
:10547000811113C08091AE059091AF05A091B00548
:10548000B091B1054196A11DB11D8093AE059093D9
:10549000AF05A093B005B093B105BF91AF919F91B7
:1054A0008F911F901FBE1F901895CF93DF93EC0133
:1054B0000E94F0148C1B9D0BDF91CF910895CDB706
:1054C000DEB7E5970FB6F894DEBF0FBECDBF85B748
:1054D000806885BF85B7806885BF84B7877F84BFB4
:1054E0000FB6F894A8958091600088618093600061
:1054F000109260000FBE80E890E00FB6F8948093A1
:105500006100909361000FBE81E08093510189E4B6
:105510009AE09093D1018093D0010E94240A0E94C6
:105520001B070E94BC078091E20084608093E20028
:1055300078948091BD058823A1F01091E9001F7037
:105540009091EC00892F817090FD80E8182B1092CB
:10555000E9008091E80083FD0E941F1A1F701093DC
:10556000E90082E084BD93E095BD9AEF97BD8093FA
:105570006E00109287021092880210928902109297
:105580008A020E94C20E811102C00E94B610809150
:10559000D80080618093D8002AE12A95F1F700C0F5
:1055A0008091D900182F117080FD04C00E941B0744
:1055B0001092BD051093A5051093A6051093380110
:1055C00011110E94D333E7E8F5E088E0DF011D9276
:1055D0008A95E9F78091380191E089278093A702A5
:1055E000809138019093AA0280913801809138010E
:1055F000811106C084EF80934C0185EF80934D01AB
:1056000060E080E00E94DC0961E080E00E94DC094B
:10561000EFE8F1E03197F1F700C0000010E0809171
:10562000AA02181708F493C08091380180913801BC
:1056300095E0811190E09093960285E0891B80931C
:10564000950205E911E0BAE9EB2EB1E0FB2ED80195
:105650008D918D018F3F11F00E944F0AE016F106E7
:10566000B1F70AE911E0F80181918F018F3F11F044
:105670000E944F0AF1E0003A1F07A9F78AE0E1EB28
:10568000F2E0DF01282F1D922A95E9F7EBE8F2E01E
:10569000DF011D928A95E9F790E080E00E94DB35FA
:1056A000833E9E4F21F40E94C20E811129C063EEF9
:1056B0007EEF90E080E00E94093660E082E090E0BA
:1056C0000E94EF3581E08093970261E083E090E0F3
:1056D0000E94EF3560E074E184E090E00E940936BA
:1056E0000E94B61040E050E0BA018FE090E00E94C6
:1056F000013640E050E0BA0183E190E00E940136BB
:1057000082E090E00E94D3358093980284E090E09C
:105710000E94DB359093AC058093AB050E947D170A
:10572000EFEFF6E721E0E150F0402040E1F700C064
:1057300000000E947D178091B10280FF1AC06FEFB8
:105740007FEF90E080E00E9409360E94740860E0DC
:10575000812F0E94C009082F61E0812F0E94C0099B
:10576000E12FF0E0E855FD4F880F802B80831F5F0D
:1057700056CF83E090E00E94D3350E948F0D809138
:10578000A505882309F4BAC083E080937B0580FDDA
:10579000B7C080E880935903B8D66BE070E08FED16
:1057A00091E00E94E0118823E9F180917B0565E09A
:1057B00070E081FDA7C08AED91E00E94E01188238E
:1057C00089F16DE070E088EC91E00E94E01188239F
:1057D00049F10E948508605A75418F4F9F4F609331
:1057E0007F05709380058093810590938205EBE798
:1057F000F3E080E092E0DF019C011D9221503040F7
:10580000E1F7F0935803E09357038FEF9FEF9093E6
:105810007E0580937D0581E08093860580938305D6
:1058200010927C058091A505811101C0BFD789E345
:1058300091E09093C8058093C70581EB92E03AE030
:10584000380F3DAB8091BD0510E400E1A2E1FA2ED6
:10585000853009F48DC00E947D17E9E9CE2EE2E083
:10586000DE2EF1EBEF2EF2E0FF2ED701F601919143
:105870008D9122E0E33AF20709F484C09817B9F356
:105880006090A50571EBA72E72E0B72E10E05524AD
:105890005394D5010D915D01F60171906F01701661
:1058A00029F17026912C88248394872D8821B1F0CA
:1058B0006620A1F09BA61CA70E94F0149EA78DA7AE
:1058C0005FA691E0802F882109F490E098AB4BA56A
:1058D0005CA56DA57EA58FA50E947E1F9394880C64
:1058E000F6E09F12E2CFF601319700831F5F1A3076
:1058F00081F60E94660ABB24B39448C080E045CF7D
:1059000080E248CF85ED91E058CF8091BD0584308D
:1059100029F10E94ED111092AD0568E170E00FB61B
:10592000F894A895609360000FBE1093600083B751
:10593000817F846083BF83B7816083BF78948895BB
:1059400083B78E7F83BF0FB6F894A89580916000CF
:10595000886180936000109260000FBE0E947D17E6
:10596000E1EBF2E0819181114DC57DA97E13FACF63
:105970008091BD05853009F4C8CF0E94F1190E94BD
:10598000410969CF98137CCF45DDB12C8091A505E5
:10599000811111C0A12C8091AB02882351F010928B
:1059A000AB028091890580938A0580918705809359
:1059B0008805C12C76C00091A3051091A40501159E
:1059C000110521F40E942C20A82EE5CFC090A3023F
:1059D000D090A4020E94F0148C199D096C01C8019A
:1059E0000E94EF108C159D05B8F42091A30530910D
:1059F000A405C9019927287F3327232B99F464E054
:105A0000880F991F6A95E1F78F529D4FDC0115961B
:105A10002C9122FF0E94C9198091A505882309F4C1
:105A2000B9CFD0CF90E080E0F1CF61E08C2D0E9423
:105A3000C009182F60E08C2D0E94C009E12FEE0FE5
:105A40008E2B0C2D10E0D801A855BD4FEC919E2F48
:105A50009370891729F1EE0FEE0FE82BEC938091EC
:105A6000A7028C0DEF70F0E0E056FE4F0B551D4F76
:105A7000D080F8019081D90ED082F1E060E0FD1570
:105A800024F02FEFD2161CF461E00E94FF098D2D47
:105A9000DD0C990B62E070E00E947D35D8018C939B
:105AA000C3948091AA02C81608F4BFCF8091A505BF
:105AB000882319F00E942C20A82AAA2039F00E94DD
:105AC000660A0E94FA150E94071204C00E94FA1585
:105AD000B110F9CF86E0E8E9F5E09E012F5F3F4F76
